:100000000C9434000C943E000C943E000C943E0082
:100010000C943E000C943E000C943E000C943E0068
:100020000C943E000C943E000C943E000C943E0058
:100030000C943E000C943E000C943E000C943E0048
:100040000C943E000C943E000C943E000C943E0038
:100050000C943E000C943E000C943E000C943E0028
:100060000C943E000C943E0011241FBECFEFD8E04C
:10007000DEBFCDBF0E9440000C945A000C940000DB
:100080008FEF84B987E085B928982FEF8EE994E245
:10009000215080409040E1F700C0000029982FEFE8
:1000A0008EE994E2215080409040E1F700C00000CA
:0800B000299AEBCFF894FFCF71
:00000001FF
